{
  "_format": "hh-sol-artifact-1",
  "contractName": "LendingPoolMock",
  "sourceName": "contracts/LendingPoolConfigurator.sol",
  "abi": [
    {
      "inputs": [
        {
          "internalType": "address",
          "name": "_admin",
          "type": "address"
        }
      ],
      "stateMutability": "nonpayable",
      "type": "constructor"
    },
    {
      "anonymous": false,
      "inputs": [],
      "name": "Paused",
      "type": "event"
    },
    {
      "anonymous": false,
      "inputs": [
        {
          "indexed": true,
          "internalType": "address",
          "name": "reserve",
          "type": "address"
        },
        {
          "indexed": false,
          "internalType": "uint256",
          "name": "liquidityRate",
          "type": "uint256"
        },
        {
          "indexed": false,
          "internalType": "uint256",
          "name": "stableBorrowRate",
          "type": "uint256"
        },
        {
          "indexed": false,
          "internalType": "uint256",
          "name": "variableBorrowRate",
          "type": "uint256"
        },
        {
          "indexed": false,
          "internalType": "uint256",
          "name": "liquidityIndex",
          "type": "uint256"
        },
        {
          "indexed": false,
          "internalType": "uint256",
          "name": "variableBorrowIndex",
          "type": "uint256"
        }
      ],
      "name": "ReserveDataUpdated",
      "type": "event"
    },
    {
      "anonymous": false,
      "inputs": [],
      "name": "Unpaused",
      "type": "event"
    },
    {
      "inputs": [],
      "name": "admin",
      "outputs": [
        {
          "internalType": "address",
          "name": "",
          "type": "address"
        }
      ],
      "stateMutability": "view",
      "type": "function"
    },
    {
      "inputs": [],
      "name": "getAdmin",
      "outputs": [
        {
          "internalType": "address",
          "name": "",
          "type": "address"
        }
      ],
      "stateMutability": "view",
      "type": "function"
    },
    {
      "inputs": [
        {
          "internalType": "address",
          "name": "_reserve",
          "type": "address"
        },
        {
          "internalType": "address",
          "name": "_aTokenAddress",
          "type": "address"
        },
        {
          "internalType": "address",
          "name": "_stableDebtAddress",
          "type": "address"
        },
        {
          "internalType": "address",
          "name": "_variableDebtAddress",
          "type": "address"
        },
        {
          "internalType": "address",
          "name": "_interestRateStrategyAddress",
          "type": "address"
        }
      ],
      "name": "initReserve",
      "outputs": [],
      "stateMutability": "nonpayable",
      "type": "function"
    },
    {
      "inputs": [],
      "name": "isPaused",
      "outputs": [
        {
          "internalType": "bool",
          "name": "",
          "type": "bool"
        }
      ],
      "stateMutability": "view",
      "type": "function"
    },
    {
      "inputs": [],
      "name": "paused",
      "outputs": [
        {
          "internalType": "bool",
          "name": "",
          "type": "bool"
        }
      ],
      "stateMutability": "view",
      "type": "function"
    },
    {
      "inputs": [
        {
          "internalType": "address",
          "name": "_admin",
          "type": "address"
        }
      ],
      "name": "setAdmin",
      "outputs": [],
      "stateMutability": "nonpayable",
      "type": "function"
    },
    {
      "inputs": [
        {
          "internalType": "bool",
          "name": "_isPaused",
          "type": "bool"
        }
      ],
      "name": "setPoolPause",
      "outputs": [],
      "stateMutability": "nonpayable",
      "type": "function"
    }
  ],
  "bytecode": "0x608060405234801561001057600080fd5b506040516104ae3803806104ae83398101604081905261002f91610059565b600080546001600160a01b03909216610100026001600160a81b0319909216919091179055610087565b60006020828403121561006a578081fd5b81516001600160a01b0381168114610080578182fd5b9392505050565b610418806100966000396000f3fe608060405234801561001057600080fd5b506004361061007d5760003560e01c80637641f3d91161005b5780637641f3d9146100e35780637a708e92146100f6578063b187bd2614610109578063f851a4401461011457600080fd5b80635c975abb146100825780636e9960c3146100a4578063704b6c02146100ce575b600080fd5b60005461008f9060ff1681565b60405190151581526020015b60405180910390f35b60005461010090046001600160a01b03165b6040516001600160a01b03909116815260200161009b565b6100e16100dc36600461033d565b61012c565b005b6100e16100f13660046103c2565b6101ab565b6100e161010436600461035e565b61026e565b60005460ff1661008f565b6000546100b69061010090046001600160a01b031681565b60005461010090046001600160a01b031633146101835760405162461bcd60e51b815260206004820152601060248201526f22a92927a91d102727aa1020a226a4a760811b60448201526064015b60405180910390fd5b600080546001600160a01b0390921661010002610100600160a81b0319909216919091179055565b60005461010090046001600160a01b031633146101fd5760405162461bcd60e51b815260206004820152601060248201526f22a92927a91d102727aa1020a226a4a760811b604482015260640161017a565b6000805460ff191682151590811790915560ff1615610242576040517f9e87fac88ff661f02d44f95383c817fece4bce600a3dab7a54406878b965e75290600090a150565b6040517fa45f47fdea8a1efdd9029a5691c7f759c32b7c698632b563573e155625d1693390600090a150565b6001600160a01b03858116600081815260016020818152604080842080546001600160a01b03199081168c8916178255938101805485168b891617905560028101805485168a89161790556003810180549094169688169690961790925581518381529081018390529081018290526060810182905260808101919091527f804c9b842b2748a22bb64b345453a3de7ca54a6ca45ce00d415894979e22897a9060a00160405180910390a2505050505050565b80356001600160a01b038116811461033857600080fd5b919050565b60006020828403121561034e578081fd5b61035782610321565b9392505050565b600080600080600060a08688031215610375578081fd5b61037e86610321565b945061038c60208701610321565b935061039a60408701610321565b92506103a860608701610321565b91506103b660808701610321565b90509295509295909350565b6000602082840312156103d3578081fd5b81358015158114610357578182fdfea2646970667358221220247e7d29a12252382d23f9663467bd44204f3c8dba4a7dd6f8dda4aa8a22d30464736f6c63430008040033",
  "linkReferences": {},
  "deployedLinkReferences": {}
}